:100000000C945A000C9479000C9479000C947900AB
:100010000C9479000C9479000C9479000C9479007C
:100020000C9479000C9479000C9479000C9479006C
:100030000C9479000C9459030C94C3030C942D0474
:100040000C9479000C9479000C9479000C9479004C
:100050000C948A0E0C9479000C9479000C9479001D
:100060000C9479000C9479000C9479000C9479002C
:100070000C9479000C9479000C9479000C9479001C
:100080000C9479000C9479000C947900D207D6076F
:10009000DA07DE07E207E607EA07EE07F207F607E8
:1000A000FA07FE07020806080A080E0812081608D2
:1000B0001A081E0811241FBECFEFD0E4DEBFCDBF4B
:1000C00011E0A0E0B1E0EAE9F5E200E00BBF02C018
:1000D00007900D92A230B107D9F721E0A2E0B1E07C
:1000E00001C01D92AE32B207E1F70E9432110C94AA
:1000F000CB120C940000CF93DF93CDB7DEB784E230
:1001000090E02FEFFC01208385E290E0FC0110825B
:1001100087E290E02FEFFC01208388E290E0FC0171
:1001200010828AE290E024E7FC0120838BE290E0D9
:10013000FC011082DF91CF910895CF93DF93CDB76B
:10014000DEB785E290E025E230E0F90120812E7FE4
:10015000FC012083DF91CF910895CF93DF93CDB73A
:10016000DEB785E290E025E230E0F90120812160F0
:10017000FC012083DF91CF910895CF93DF93CDB71A
:10018000DEB785E290E025E230E0F90120812D7FA5
:10019000FC012083DF91CF910895CF93DF93CDB7FA
:1001A000DEB785E290E025E230E0F90120812260AF
:1001B000FC012083DF91CF910895CF93DF93CDB7DA
:1001C000DEB785E290E025E230E0F90120812B7F67
:1001D000FC012083DF91CF910895CF93DF93CDB7BA
:1001E000DEB785E290E025E230E0F901208124606D
:1001F000FC012083DF91CF910895CF93DF93CDB79A
:10020000DEB785E290E025E230E0F9012081277F2A
:10021000FC012083DF91CF910895CF93DF93CDB779
:10022000DEB785E290E025E230E0F9012081286028
:10023000FC012083DF91CF910895CF93DF93CDB759
:10024000DEB785E290E025E230E0F90120812F7EE3
:10025000FC012083DF91CF910895CF93DF93CDB739
:10026000DEB785E290E025E230E0F90120812061EF
:10027000FC012083DF91CF910895CF93DF93CDB719
:10028000DEB785E290E025E230E0F90120812F7DA4
:10029000FC012083DF91CF910895CF93DF93CDB7F9
:1002A000DEB785E290E025E230E0F90120812062AE
:1002B000FC012083DF91CF910895CF93DF93CDB7D9
:1002C000DEB785E290E025E230E0F90120812F7B66
:1002D000FC012083DF91CF910895CF93DF93CDB7B9
:1002E000DEB785E290E025E230E0F901208120646C
:1002F000FC012083DF91CF910895CF93DF93CDB799
:10030000DEB785E290E025E230E0F90120812F7729
:10031000FC012083DF91CF910895CF93DF93CDB778
:10032000DEB785E290E025E230E0F9012081206827
:10033000FC012083DF91CF910895CF93DF93CDB758
:10034000DEB78BE290E02BE230E0F90120812B7FD9
:10035000FC012083DF91CF910895CF93DF93CDB738
:10036000DEB78BE290E02BE230E0F90120812460DF
:10037000FC012083DF91CF910895CF93DF93CDB718
:10038000DEB788E290E028E230E0F90120812F77A3
:10039000FC012083DF91CF910895CF93DF93CDB7F8
:1003A000DEB788E290E028E230E0F90120812068A1
:1003B000FC012083DF91CF910895CF93DF93CDB7D8
:1003C000DEB788E290E028E230E0F90120812F7B5F
:1003D000FC012083DF91CF910895CF93DF93CDB7B8
:1003E000DEB788E290E028E230E0F9012081206465
:1003F000FC012083DF91CF910895CF93DF93CDB798
:10040000DEB788E290E028E230E0F90120812F7D1C
:10041000FC012083DF91CF910895CF93DF93CDB777
:10042000DEB788E290E028E230E0F9012081206226
:10043000FC012083DF91CF910895CF93DF93CDB757
:10044000DEB788E290E028E230E0F90120812F7EDB
:10045000FC012083DF91CF910895CF93DF93CDB737
:10046000DEB788E290E028E230E0F90120812061E7
:10047000FC012083DF91CF910895CF93DF93CDB717
:10048000DEB788E290E028E230E0F9012081277FA2
:10049000FC012083DF91CF910895CF93DF93CDB7F7
:1004A000DEB788E290E028E230E0F90120812860A0
:1004B000FC012083DF91CF910895CF93DF93CDB7D7
:1004C000DEB788E290E028E230E0F90120812B7F5E
:1004D000FC012083DF91CF910895CF93DF93CDB7B7
:1004E000DEB788E290E028E230E0F9012081246064
:1004F000FC012083DF91CF910895CF93DF93CDB797
:10050000DEB78BE290E02BE230E0F90120812F7B17
:10051000FC012083DF91CF910895CF93DF93CDB776
:10052000DEB78BE290E02BE230E0F901208120641D
:10053000FC012083DF91CF910895CF93DF93CDB756
:10054000DEB78BE290E02BE230E0F90120812F7DD5
:10055000FC012083DF91CF910895CF93DF93CDB736
:10056000DEB78BE290E02BE230E0F90120812062DF
:10057000FC012083DF91CF910895CF93DF93CDB716
:10058000DEB78BE290E02BE230E0F90120812F7E94
:10059000FC012083DF91CF910895CF93DF93CDB7F6
:1005A000DEB78BE290E02BE230E0F90120812061A0
:1005B000FC012083DF91CF910895CF93DF93CDB7D6
:1005C000DEB788E290E028E230E0F90120812E7F5A
:1005D000FC012083DF91CF910895CF93DF93CDB7B6
:1005E000DEB788E290E028E230E0F9012081216066
:1005F000FC012083DF91CF910895CF93DF93CDB796
:10060000DEB788E290E028E230E0F90120812D7F1A
:10061000FC012083DF91CF910895CF93DF93CDB775
:10062000DEB788E290E028E230E0F9012081226024
:10063000FC012083DF91CF910895CF93DF93CDB755
:10064000DEB781E890E0FC01108285E890E020E7C9
:10065000FC01208384E890E021E0FC01208389E80C
:1006600090E02FE8FC01208388E890E02FEFFC0168
:1006700020838BE890E02FE8FC0120838AE890E05B
:100680002FEFFC01208387E890E02FE8FC01208316
:1006900086E890E02FEFFC01208380E890E0FC01E9
:1006A000108281E890E021E0FC012083DF91CF916E
:1006B00008951F920F920FB60F9200905B000F9259
:1006C00011242F933F934F935F936F937F938F9357
:1006D0009F93AF93BF93EF93FF93CF93DF93CDB7E8
:1006E000DEB780910201882311F40E949D00809161
:1006F0000201813011F40E94DD00809102018230FC
:1007000011F40E941D0180910201833011F40E94B6
:100710005D0180910201843011F40E949D0180915D
:100720000201853011F40E94DD01809102018630C2
:1007300011F40E941D0280910201873011F40E9481
:100740005D0280910201883011F40E949D02809127
:100750000201893011F40E94DD02DF91CF91FF91F7
:10076000EF91BF91AF919F918F917F916F915F9129
:100770004F913F912F910F9000925B000F900FBE11
:100780000F901F9018951F920F920FB60F92009026
:100790005B000F9211242F933F934F935F936F93BE
:1007A0007F938F939F93AF93BF93EF93FF93CF93D9
:1007B000DF93CDB7DEB780910201882311F40E9448
:1007C000BD0080910201813011F40E94FD008091F2
:1007D0000201823011F40E943D01809102018330B8
:1007E00011F40E947D0180910201843011F40E9475
:1007F000BD0180910201853011F40E94FD018091BC
:100800000201863011F40E943D028091020187307E
:1008100011F40E947D0280910201883011F40E943F
:10082000BD0280910201893011F40E94FD02DF9126
:10083000CF91FF91EF91BF91AF919F918F917F9158
:100840006F915F914F913F912F910F9000925B00BC
:100850000F900FBE0F901F9018951F920F920FB61A
:100860000F9200905B000F9211242F933F934F93B0
:100870005F936F937F938F939F93AF93BF93EF9308
:10088000FF93CF93DF93CDB7DEB785E890E020E705
:10089000FC01208384E890E021E0FC01208380912A
:1008A00002018F5F80930201809102018B3010F072
:1008B00010920201809102018823E1F40E94AD00B0
:1008C0000E94CD0089E890E020910F01FC01208377
:1008D00088E890E020911D01FC0120838BE890E0E6
:1008E00020912501FC0120838AE890E020911801E5
:1008F000FC012083809102018130E1F40E94ED002F
:100900000E940D0189E890E020912001FC012083E4
:1009100088E890E020912901FC0120838BE890E099
:1009200020912401FC0120838AE890E020910B01B2
:10093000FC012083809102018230E1F40E942D01AC
:100940000E944D0189E890E020910D01FC01208377
:1009500088E890E020911901FC0120838BE890E069
:1009600020911E01FC0120838AE890E020912B0158
:10097000FC012083809102018330E1F40E946D012B
:100980000E948D0189E890E020912301FC012083E1
:1009900088E890E020911401FC0120838BE890E02E
:1009A00020910E01FC0120838AE890E020910A0149
:1009B000FC012083809102018430E1F40E94AD01AA
:1009C0000E94CD0189E890E020911001FC01208374
:1009D00088E890E020912D01FC0120838BE890E0D5
:1009E00020912601FC0120838AE890E020911601E5
:1009F000FC012083809102018530E1F40E94ED0129
:100A00000E940D0289E890E020912101FC012083E1
:100A100088E890E020912C01FC0120838BE890E095
:100A200020912A01FC0120838AE890E020911F0197
:100A3000FC012083809102018630E1F40E942D02A6
:100A40000E944D0289E890E020910C01FC01208376
:100A500088E890E020912801FC0120838BE890E059
:100A600020911201FC0120838AE890E02091150179
:100A7000FC012083809102018730E1F40E946D0225
:100A80000E948D0289E890E020912201FC012083E0
:100A900088E890E020911C01FC0120838BE890E025
:100AA00020911A01FC0120838AE890E020911B012B
:100AB000FC012083809102018830E1F40E94AD02A4
:100AC0000E94CD0289E890E020911101FC01208371
:100AD00088E890E020911301FC0120838BE890E0EE
:100AE00020911701FC0120838AE890E020912701E2
:100AF000FC012083809102018930E1F40E94ED0223
:100B00000E940D0389E890E020910701FC012083F9
:100B100088E890E020910101FC0120838BE890E0BF
:100B200020910601FC0120838AE890E020910001D9
:100B3000FC012083DF91CF91FF91EF91BF91AF91A5
:100B40009F918F917F916F915F914F913F912F91E5
:100B50000F9000925B000F900FBE0F901F901895A2
:100B6000CF93DF9300D000D0CDB7DEB71A821982C1
:100B70001C821B8280910501853B18F084EB8093D9
:100B8000050180910501482F50E023E730E0429FA6
:100B9000C001439F900D529F900D11248C5E914691
:100BA0009A83898389818093040189819A81892F1D
:100BB00099279C838B838B81809303010F900F90E7
:100BC0000F900F90DF91CF910895CF93DF930F9205
:100BD000CDB7DEB789838981809305010E94B00576
:100BE0008091030180930F018091040180931D0186
:100BF0000F90DF91CF910895CF93DF930F92CDB7F0
:100C0000DEB789838981809305010E94B0058091B8
:100C100003018093250180910401809318010F90B6
:100C2000DF91CF910895CF93DF930F92CDB7DEB7C9
:100C300089838981809305010E94B0058091030119
:100C40008093200180910401809329010F90DF910E
:100C5000CF910895CF93DF930F92CDB7DEB78983FD
:100C60008981809305010E94B005809103018093E2
:100C700024018091040180930B010F90DF91CF91AB
:100C80000895CF93DF930F92CDB7DEB78983898123
:100C9000809305010E94B0058091030180930D01AE
:100CA00080910401809319010F90DF91CF910895F5
:100CB000CF93DF930F92CDB7DEB78983898180937D
:100CC00005010E94B0058091030180931E0180916F
:100CD000040180932B010F90DF91CF910895CF9362
:100CE000DF930F92CDB7DEB78983898180930501A9
:100CF0000E94B0058091030180932301809104013B
:100D0000809314010F90DF91CF910895CF93DF93DB
:100D10000F92CDB7DEB789838981809305010E9448
:100D2000B0058091030180930E01809104018093AE
:100D30000A010F90DF91CF910895CF93DF930F9227
:100D4000CDB7DEB789838981809305010E94B00504
:100D500080910301809310018091040180932D0103
:100D60000F90DF91CF910895CF93DF930F92CDB77E
:100D7000DEB789838981809305010E94B005809147
:100D800003018093260180910401809316010F9046
:100D9000DF91CF910895CF93DF930F92CDB7DEB758
:100DA00089838981809305010E94B00580910301A8
:100DB000809321018091040180932C010F90DF9199
:100DC000CF910895CF93DF930F92CDB7DEB789838C
:100DD0008981809305010E94B00580910301809371
:100DE0002A018091040180931F010F90DF91CF9120
:100DF0000895CF93DF930F92CDB7DEB789838981B2
:100E0000809305010E94B0058091030180930C013D
:100E100080910401809328010F90DF91CF91089574
:100E2000CF93DF930F92CDB7DEB78983898180930B
:100E300005010E94B0058091030180931201809109
:100E40000401809315010F90DF91CF910895CF9306
:100E5000DF930F92CDB7DEB7898389818093050137
:100E60000E94B005809103018093220180910401CA
:100E700080931C010F90DF91CF910895CF93DF9362
:100E80000F92CDB7DEB789838981809305010E94D7
:100E9000B0058091030180931A0180910401809331
:100EA0001B010F90DF91CF910895CF93DF930F92A5
:100EB000CDB7DEB789838981809305010E94B00593
:100EC00080910301809311018091040180931301AB
:100ED0000F90DF91CF910895CF93DF930F92CDB70D
:100EE000DEB789838981809305010E94B0058091D6
:100EF00003018093170180910401809327010F90D3
:100F0000DF91CF910895CF93DF930F92CDB7DEB7E6
:100F100089838981809305010E94B0058091030136
:100F20008093060180910401809300010F90DF916E
:100F3000CF910895CF93DF930F92CDB7DEB789831A
:100F40008981809305010E94B005809103018093FF
:100F5000070180910401809301010F90DF91CF91EF
:100F60000895CF93DF9300D0CDB7DEB789836A832E
:100F70008981882F90E0AA2797FDA095BA2F41E09C
:100F800050E023E130E0841B950B2817390708F463
:100F900059C08A5B9F4FFC01EE0FFF1F0590F49133
:100FA000E02D09948A810E94E5054CC08A810E9447
:100FB000FC0548C08A810E94130644C08A810E94B1
:100FC0002A0640C08A810E9441063CC08A810E9454
:100FD000580638C08A810E946F0634C08A810E94F8
:100FE000860630C08A810E949D062CC08A810E949C
:100FF000B40628C08A810E94CB0624C08A810E9440
:10100000E20620C08A810E94F9061CC08A810E94E3
:10101000100718C08A810E94270714C08A810E9485
:101020003E0710C08A810E9455070CC08A810E9429
:101030006C0708C08A810E94830704C08A810E94CD
:101040009A0700000F900F90DF91CF910895CF93F2
:10105000DF93CDB7DEB78AE50E94E5058AE50E94F9
:10106000FC058AE50E9413068AE50E942A068AE5A5
:101070000E9441068AE50E9458068AE50E946F0692
:101080008AE50E9486068AE50E949D068AE50E94FE
:10109000B4068AE50E94CB068AE50E94E2068AE54C
:1010A0000E94F9068AE50E9410078AE50E94270738
:1010B0008AE50E943E078AE50E9455078AE50E945C
:1010C0006C07DF91CF910895CF93DF93CDB7DEB753
:1010D0008AE50E94E50581E90E94FC058AE50E94F7
:1010E00013068AE50E942A0681E90E9441068AE5E4
:1010F0000E9458068AE50E946F0688E20E948606D2
:101100008AE50E949D068AE50E94B40688E20E9454
:10111000CB068AE50E94E2068AE50E94F90688E28B
:101120000E9410078AE50E9427078AE50E943E0771
:1011300081E90E9455078AE50E946C07DF91CF91F3
:101140000895CF93DF93CDB7DEB7F8940E947B006C
:101150000E941D038FE690E027E0FC012083789435
:10116000DF91CF910895CF93DF93CDB7DEB781ECB8
:1011700090E0FC01108280EC90E0FC01108282EC97
:1011800090E026E0FC01208384EC90E02FE5FC0158
:10119000208385EC90E0FC01108281EC90E028E94E
:1011A000FC012083DF91CF9108950F931F93CF937C
:1011B000DF93CDB7DEB72F970FB6F894DEBF0FBE23
:1011C000CDBF8F8780910801909109018170992787
:1011D000009721F48CE30E94FC0503C08AE50E947D
:1011E000FC0580E090E0A0E2B1E489839A83AB83C0
:1011F000BC8326E636E646E655E469817A818B8132
:101200009C810E944012DC01CB018D839E83AF83C1
:10121000B88720E030E040E85FE36D817E818F8118
:1012200098850E94BF1188232CF481E090E09A8772
:10123000898742C020E03FEF4FE757E46D817E8110
:101240008F8198850E943C12181664F520E030E0EA
:1012500040E251E469817A818B819C810E94401235
:10126000DC01CB01BC01CD010E94C311DC01CB012B
:101270009A87898712C080E791E09C878B878B854E
:101280009C858C01C8010197F1F78C011C870B87A5
:1012900089859A8501979A87898789859A85009794
:1012A00051F717C06D817E818F8198850E94C3118F
:1012B000DC01CB019A87898789859A859E878D87EE
:1012C0008D859E858C01C8010197F1F78C011E87E1
:1012D0000D87809108019091090101969093090171
:1012E000809308012F960FB6F894DEBF0FBECDBFD6
:1012F000DF91CF911F910F910895CF93DF93CDB7D9
:10130000DEB78BE40E94E5058BE40E942A068BE49D
:101310000E946F0689E60E94B40689E60E94F906DB
:1013200089E60E943E07DF91CF910895CF93DF9326
:10133000CDB7DEB789E60E94E50589E60E942A0658
:1013400089E60E946F068BE40E94B4068BE40E943B
:10135000F9068BE40E943E07DF91CF910895CF9369
:10136000DF93CDB7DEB782E80E94FC0582E80E94D9
:10137000410687E30E94860687E30E94CB0687E347
:101380000E94100782E890E00E9455078BE40E94BB
:1013900013068BE40E94580689E60E949D068BE4A2
:1013A0000E94E2068BE40E94270789E60E946C07F0
:1013B000DF91CF910895CF93DF93CDB7DEB789E664
:1013C0000E94130689E60E9458068BE40E949D063F
:1013D00089E60E94E20689E60E9427078BE40E94C4
:1013E0006C0782E80E94FC0582E80E94410687E3C0
:1013F0000E94860687E30E94CB0687E30E941007BF
:1014000082E890E00E945507DF91CF910895CF9335
:10141000DF93CDB7DEB78EE10E94E5058AE50E9435
:101420002A0686E90E946F0686E90E94B4068AE5CC
:101430000E94F9068EE10E943E0781E90E94FC05A8
:1014400081E90E94410688E20E94860688E20E94A5
:10145000CB0688E20E94100781E990E00E945507C0
:101460008AE50E9413068AE50E9458068AE50E94D2
:101470009D068AE50E94E2068AE50E9427078AE522
:101480000E946C07DF91CF910895CF93DF93CDB782
:10149000DEB78EE10E94E5058AE50E942A0686E90C
:1014A0000E946F0686E90E94B4068AE50E94F9064A
:1014B0008EE10E943E078DE70E94FC058DE70E94A9
:1014C00041068CE30E9486068CE30E94CB068CE3E7
:1014D0000E9410078DE790E00E94550786E40E9465
:1014E000130686E40E9458068EE60E949D068EE64C
:1014F0000E94E2068EE60E94270786E40E946C079F
:10150000DF91CF910895CF93DF93CDB7DEB780E021
:101510000E94E5058DE70E94FC0584EB0E941306FE
:101520008AE50E942A068DE70E9441068AE50E940C
:1015300058068AE50E946F0687E30E9486068AE5C0
:101540000E949D068AE50E94B40687E30E94CB06AE
:101550008AE50E94E2068AE50E94F90687E30E9476
:1015600010078AE50E9427078AE50E943E078DE75B
:1015700090E00E9455078AE50E946C07DF91CF91A9
:101580000895CF93DF93CDB7DEB780E00E94E505E5
:101590008AE50E94FC0586E90E9413068AE50E94FE
:1015A0002A0681E90E94410684E60E9458068AE5DF
:1015B0000E946F0683E20E94860680E50E949D06D7
:1015C0008AE50E94B4068BE40E94CB0684E60E9462
:1015D000E2068AE50E94F9068BE40E94100784E681
:1015E0000E9427078AE50E943E0789E690E00E9454
:1015F000550780E50E946C07DF91CF910895CF9346
:10160000DF93CDB7DEB78FEA0E94E5058FEA0E942F
:10161000FC0585E00E9413068FEA0E942A068FEAE5
:101620000E94410685E00E9458068FEA0E946F06DC
:1016300085E00E9486068FEA0E949D0685E00E9452
:10164000B40685E00E94CB068FEA0E94E20685E0A0
:101650000E94F90685E00E9410078FEA0E94270782
:1016600085E00E943E078FEA90E00E94550785E0E2
:101670000E946C07DF91CF910895CF93DF93CDB790
:10168000DEB70E946408DF91CF910895CF93DF9376
:10169000CDB7DEB785E00E94E5058FEA0E94FC0524
:1016A00085E00E94130685E00E942A068FEA0E94C8
:1016B000410685E00E94580685E00E946F0685E09D
:1016C0000E9486068FEA0E949D068FEA0E94B40659
:1016D00085E00E94CB068FEA0E94E2068FEA0E9414
:1016E000F90685E00E9410078FEA0E9427078FEA1B
:1016F0000E943E078FEA90E00E94550785E00E9415
:101700006C07DF91CF910895CF93DF93CDB7DEB70C
:101710000E946408DF91CF9108950F931F93CF9398
:10172000DF93CDB7DEB7E8970FB6F894DEBF0FBEF4
:10173000CDBF8FEA0E94E5058FEA0E94FC0585E097
:101740000E9413068FEA0E942A068FEA0E94410631
:1017500085E00E9458068FEA0E946F0685E00E948D
:1017600086068FEA0E949D0685E00E94B40685E009
:101770000E94CB068FEA0E94E20685E00E94F906ED
:1017800085E00E9410078FEA0E94270785E00E94EB
:101790003E078FEA90E00E94550785E00E946C07A3
:1017A00080E090E0A6E1B4E489839A83AB83BC83B4
:1017B00026E636E646E655E469817A818B819C818E
:1017C0000E944012DC01CB018D839E83AF83B887DA
:1017D00020E030E040E85FE36D817E818F81988575
:1017E0000E94BF1188232CF481E090E09A878987BA
:1017F00042C020E03FEF4FE757E46D817E818F814B
:1018000098850E943C12181664F520E030E040E212
:1018100051E469817A818B819C810E944012DC01B4
:10182000CB01BC01CD010E94C311DC01CB019A8721
:10183000898712C080E791E09C878B878B859C8588
:101840008C01C8010197F1F78C011C870B878985F2
:101850009A8501979A87898789859A85009751F794
:1018600017C06D817E818F8198850E94C311DC0134
:10187000CB019A87898789859A859E878D878D85F3
:101880009E858C01C8010197F1F78C011E870D8799
:101890000E94640880E090E0A6E1B4E48F87988B12
:1018A000A98BBA8B26E636E646E655E46F8578893D
:1018B00089899A890E944012DC01CB018B8B9C8B19
:1018C000AD8BBE8B20E030E040E85FE36B897C8924
:1018D0008D899E890E94BF1188232CF481E090E0BD
:1018E000988F8F8B42C020E03FEF4FE757E46B8922
:1018F0007C898D899E890E943C12181664F520E02F
:1019000030E040E251E46F85788989899A890E94A4
:101910004012DC01CB01BC01CD010E94C311DC01EE
:10192000CB01988F8F8B12C080E791E09A8F898FBF
:10193000898D9A8D8C01C8010197F1F78C011A8F5E
:10194000098F8F89988D0197988F8F8B8F89988DAC
:10195000009751F717C06B897C898D899E890E94F9
:10196000C311DC01CB01988F8F8B8F89988D9C8F51
:101970008B8F8B8D9C8D8C01C8010197F1F78C01A9
:101980001C8F0B8F85E00E94E5058FEA0E94FC0505
:1019900085E00E94130685E00E942A068FEA0E94D5
:1019A000410685E00E94580685E00E946F0685E0AA
:1019B0000E9486068FEA0E949D068FEA0E94B40666
:1019C00085E00E94CB068FEA0E94E2068FEA0E9421
:1019D000F90685E00E9410078FEA0E9427078FEA28
:1019E0000E943E078FEA90E00E94550785E00E9422
:1019F0006C0780E090E0A6E1B4E48D8F9E8FAF8FFE
:101A0000B8A326E636E646E655E46D8D7E8D8F8DCD
:101A100098A10E944012DC01CB0189A39AA3ABA339
:101A2000BCA320E030E040E85FE369A17AA18BA18C
:101A30009CA10E94BF1188232CF481E090E09EA31A
:101A40008DA342C020E03FEF4FE757E469A17AA1A0
:101A50008BA19CA10E943C12181664F520E030E096
:101A600040E251E46D8D7E8D8F8D98A10E944012D1
:101A7000DC01CB01BC01CD010E94C311DC01CB0113
:101A80009EA38DA312C080E791E098A78FA38FA19A
:101A900098A58C01C8010197F1F78C0118A70FA335
:101AA0008DA19EA101979EA38DA38DA19EA10097BC
:101AB00051F717C069A17AA18BA19CA10E94C31103
:101AC000DC01CB019EA38DA38DA19EA19AA789A71E
:101AD00089A59AA58C01C8010197F1F78C011AA775
:101AE00009A70E94640880E090E0A6E1B4E48BA717
:101AF0009CA7ADA7BEA726E636E646E655E46BA54D
:101B00007CA58DA59EA50E944012DC01CB018FA76C
:101B100098ABA9ABBAAB20E030E040E85FE36FA53B
:101B200078A989A99AA90E94BF1188232CF481E081
:101B300090E09CAB8BAB42C020E03FEF4FE757E417
:101B40006FA578A989A99AA90E943C12181664F574
:101B500020E030E040E251E46BA57CA58DA59EA578
:101B60000E944012DC01CB01BC01CD010E94C311D7
:101B7000DC01CB019CAB8BAB12C080E791E09EAB4C
:101B80008DAB8DA99EA98C01C8010197F1F78C013D
:101B90001EAB0DAB8BA99CA901979CAB8BAB8BA902
:101BA0009CA9009751F717C06FA578A989A99AA990
:101BB0000E94C311DC01CB019CAB8BAB8BA99CA910
:101BC00098AF8FAB8FA998AD8C01C8010197F1F741
:101BD0008C0118AF0FABE8960FB6F894DEBF0FBEBE
:101BE000CDBFDF91CF911F910F910895CF93DF93D8
:101BF000CDB7DEB785E00E9441068FEA0E9410074C
:101C00008DE20E94E50587E80E942A0684E10E9491
:101C100058068DE20E946F068DE20E94B40687E8A6
:101C20000E94F90680EA0E9427078DE20E943E0783
:101C3000DF91CF910895CF93DF93CDB7DEB785E0E5
:101C40000E9441068FEA0E9410078AE50E94E5057E
:101C50008AE50E942A068AE50E9458068AE50E94C3
:101C60006F068AE50E94B4068AE50E94F9068AE5B5
:101C70000E9427078AE50E943E07DF91CF910895D1
:101C8000CF93DF93CDB7DEB785E00E9441068FEAA0
:101C90000E94100787E80E94E5058DE20E942A064F
:101CA00084E10E94580687E80E946F0687E80E9438
:101CB000B4068DE20E94F90680EA0E94270787E8B1
:101CC0000E943E07DF91CF910895CF93DF93CDB768
:101CD000DEB785E00E9441068FEA0E9410078AE580
:101CE0000E94E5058AE50E942A068AE50E945806B8
:101CF0008AE50E946F068AE50E94B4068AE50E9482
:101D0000F9068AE50E9427078AE50E943E07DF91CF
:101D1000CF9108951F920F9200905F000F921124AF
:101D200000905B000F920F931F932F933F934F935D
:101D30005F936F937F938F939F93AF93BF93EF9333
:101D4000FF93CF93DF93CDB7DEB7E997DEBFCDBF6B
:101D5000198286EC90E0FC01808189838981823739
:101D600009F0EFC189810E94D50880E090E0A8ECDD
:101D7000B2E48A839B83AC83BD8326E636E646E6DF
:101D800055E46A817B818C819D810E944012DC0137
:101D9000CB018E839F83A887B98720E030E040E89D
:101DA0005FE36E817F81888599850E94BF118823BA
:101DB0002CF481E090E09B878A8742C020E03FEFCF
:101DC0004FE757E46E817F81888599850E943C1298
:101DD000181664F520E030E040E251E46A817B812E
:101DE0008C819D810E944012DC01CB01BC01CD01A0
:101DF0000E94C311DC01CB019B878A8712C080E758
:101E000091E09D878C878C859D858C01C801019709
:101E1000F1F78C011D870C878A859B8501979B872D
:101E20008A878A859B85009751F717C06E817F81CD
:101E3000888599850E94C311DC01CB019B878A8725
:101E40008A859B859F878E878E859F858C01F8016B
:101E50003197F1F78F011F870E8789810E94D5087E
:101E600080E090E0A8ECB2E4888B998BAA8BBB8BC6
:101E700026E636E646E655E4688979898A899B89AB
:101E80000E944012DC01CB018C8B9D8BAE8BBF8BF3
:101E900020E030E040E85FE36C897D898E899F898E
:101EA0000E94BF1188232CF481E090E0998F888FE5
:101EB00042C020E03FEF4FE757E46C897D898E896F
:101EC0009F890E943C12181664F520E030E040E241
:101ED00051E4688979898A899B890E944012DC01D2
:101EE000CB01BC01CD010E94C311DC01CB01998F54
:101EF000888F12C080E791E09B8F8A8F8A8D9B8D9F
:101F00008C01C8010197F1F78C011B8F0A8F888D16
:101F1000998D0197998F888F888D998D009751F7AA
:101F200017C06C897D898E899F890E94C311DC014D
:101F3000CB01998F888F888D998D9D8F8C8F8C8DFB
:101F40009D8D8C01F8013197F1F78F011D8F0C8F5A
:101F50000E948D0B80E090E0A8ECB2E48E8F9F8F02
:101F6000A8A3B9A326E636E646E655E46E8D7F8D36
:101F700088A199A10E944012DC01CB018AA39BA3F6
:101F8000ACA3BDA320E030E040E85FE36AA17BA101
:101F90008CA19DA10E94BF1188232CF481E090E0C8
:101FA0009FA38EA342C020E03FEF4FE757E46AA112
:101FB0007BA18CA19DA10E943C12181664F520E023
:101FC00030E040E251E46E8D7F8D88A199A10E949E
:101FD0004012DC01CB01BC01CD010E94C311DC0128
:101FE000CB019FA38EA312C080E791E099A788A799
:101FF00088A599A58C01C8010197F1F78C0119A753
:1020000008A78EA19FA101979FA38EA38EA19FA138
:10201000009751F717C06AA17BA18CA19DA10E94D6
:10202000C311DC01CB019FA38EA38EA19FA19BA70F
:102030008AA78AA59BA58C01F8013197F1F78F013A
:102040001BA70AA789810E94D50880E090E0A8EC30
:10205000B2E48CA79DA7AEA7BFA726E636E646E664
:1020600055E46CA57DA58EA59FA50E944012DC01BC
:10207000CB0188AB99ABAAABBBAB20E030E040E82A
:102080005FE368A979A98AA99BA90E94BF11882347
:102090002CF481E090E09DAB8CAB42C020E03FEFA0
:1020A0004FE757E468A979A98AA99BA90E943C1225
:1020B000181664F520E030E040E251E46CA57DA5FF
:1020C0008EA59FA50E944012DC01CB01BC01CD0171
:1020D0000E94C311DC01CB019DAB8CAB12C080E729
:1020E00091E09FAB8EAB8EA99FA98C01C80101978F
:1020F000F1F78C011FAB0EAB8CA99DA901979DAB8D
:102100008CAB8CA99DA9009751F717C068A979A934
:102110008AA99BA90E94C311DC01CB019DAB8CABAA
:102120008CA99DA999AF88AF88AD99AD8C01F801B4
:102130003197F1F78F0119AF08AF89810E94D50857
:1021400062C08981813619F40E94F60D5CC08981D4
:10215000823619F40E941B0E56C08981833619F409
:102160000E94400E50C08981843619F40E94650E89
:102170004AC08981853619F40E94FF0A44C08981CA
:10218000863619F40E943D0B3EC08981873619F4CA
:102190000E94460B38C08981883619F40E94840B4E
:1021A00032C08981893619F40E947D092CC0898149
:1021B0008A3619F40E94960926C089818B3619F453
:1021C0000E94070A20C089818C3619F40E94450AB2
:1021D0001AC089818D3619F40E94AF0914C0898113
:1021E0008E3619F40E94DB090EC089818F3619F4EE
:1021F0000E94830A08C08981803719F40E94C10AAD
:1022000002C00E94640886EC90E02981FC012083D2
:10221000E9960FB6F894DEBF0FBECDBFDF91CF9128
:10222000FF91EF91BF91AF919F918F917F916F91AE
:102230005F914F913F912F911F910F910F900092BD
:102240005B000F9000925F000F901F901895CF9346
:10225000DF93CDB7DEB7F8940E94B3087894DF918E
:10226000CF9108950F931F93CF93DF93CDB7DEB730
:102270002E970FB6F894DEBF0FBECDBF0E94A10807
:102280000E9427110E94640880E090E0AAE7B4E46D
:1022900089839A83AB83BC8326E636E646E655E41B
:1022A00069817A818B819C810E944012DC01CB0183
:1022B0008D839E83AF83B88720E030E040E85FE302
:1022C0006D817E818F8198850E94BF1188232CF4B7
:1022D00081E090E09A87898742C020E03FEF4FE796
:1022E00057E46D817E818F8198850E943C1218167B
:1022F00064F520E030E040E251E469817A818B812D
:102300009C810E944012DC01CB01BC01CD010E94E6
:10231000C311DC01CB019A87898712C080E791E065
:102320009C878B878B859C858C01C8010197F1F771
:102330008C011C870B8789859A8501979A878987E5
:1023400089859A85009751F717C06D817E818F81AD
:1023500098850E94C311DC01CB019A878987898502
:102360009A859E878D878D859E858C01C8010197F2
:10237000F1F78C011E870D870E946408FFCF2FD0D4
:1023800008F481E0089557D088F09F5790F0B92F56
:102390009927B751A0F0D1F0660F771F881F991FBA
:1023A0001AF0BA95C9F712C0B13081F05ED0B1E031
:1023B00008955BC0672F782F8827B85F39F0B93F41
:1023C000CCF3869577956795B395D9F73EF49095BC
:1023D0008095709561957F4F8F4F9F4F0895990F0E
:1023E0000008550FAA0BE0E8FEEF16161706E807DF
:1023F000F907C0F012161306E407F50798F0621B00
:10240000730B840B950B39F40A2661F0232B242BD4
:10241000252B21F408950A2609F4A140A6958FEFF3
:10242000811D811D089557FD9058440F551F59F087
:102430005F3F71F04795880F97FB991F61F09F3FB1
:1024400079F087950895121613061406551FF2CFDA
:102450004695F1DF08C0161617061806991FF1CF2A
:1024600086957105610508940895E894BB27662751
:102470007727CB0197F90895B2DF08F48FEF08951D
:102480000BD078C069D028F06ED018F0952309F0F1
:102490005AC05FC01124EACFC6DFA0F3959FD1F3E5
:1024A000950F50E0551F629FF001729FBB27F00D02
:1024B000B11D639FAA27F00DB11DAA1F649F662757
:1024C000B00DA11D661F829F2227B00DA11D621FA6
:1024D000739FB00DA11D621F839FA00D611D221F60
:1024E000749F3327A00D611D231F849F600D211D44
:1024F000822F762F6A2F11249F5750408AF0E1F0E7
:1025000088234AF0EE0FFF1FBB1F661F771F881F2F
:1025100091505040A9F79E3F510570F014C0A6CFCE
:102520005F3FECF3983EDCF3869577956795B7951A
:10253000F795E7959F5FC1F7FE2B880F911D969544
:10254000879597F9089597F99F6780E870E060E0B4
:1025500008959FEF80EC089500240A94161617063C
:1025600018060906089500240A9412161306140684
:1025700005060895092E0394000C11F4882352F0E7
:10258000BB0F40F4BF2B11F460FF04C06F5F7F4F9F
:0A2590008F4F9F4F0895F894FFCF7E
:02259A0080803F
:00000001FF
